{"contracts/FTSOPriceOracle.sol":{"FTSOPriceOracle":{"abi":[{"anonymous":false,"inputs":[{"indexed":false,"internalType":"uint256","name":"price","type":"uint256"},{"indexed":false,"internalType":"uint64","name":"timestamp","type":"uint64"}],"name":"PriceRequested","type":"event"},{"inputs":[],"name":"BTC_USD_FEED_ID","outputs":[{"internalType":"bytes21","name":"","type":"bytes21"}],"stateMutability":"view","type":"function"},{"inputs":[],"name":"FLARE_CONTRACT_REGISTRY","outputs":[{"internalType":"contract IContractRegistry","name":"","type":"address"}],"stateMutability":"view","type":"function"},{"inputs":[],"name":"MAX_PRICE_AGE","outputs":[{"internalType":"uint256","name":"","type":"uint256"}],"stateMutability":"view","type":"function"},{"inputs":[{"internalType":"uint256","name":"usdValue","type":"uint256"}],"name":"calculateBtcAmountForUsd","outputs":[{"internalType":"uint256","name":"btcAmount","type":"uint256"}],"stateMutability":"view","type":"function"},{"inputs":[{"internalType":"uint256","name":"btcAmount","type":"uint256"}],"name":"calculateBtcUsdValue","outputs":[{"internalType":"uint256","name":"usdValue","type":"uint256"}],"stateMutability":"view","type":"function"},{"inputs":[],"name":"getBtcFeedId","outputs":[{"internalType":"bytes21","name":"feedId","type":"bytes21"}],"stateMutability":"pure","type":"function"},{"inputs":[],"name":"getBtcPrice","outputs":[{"internalType":"uint256","name":"price","type":"uint256"},{"internalType":"int8","name":"decimals","type":"int8"},{"internalType":"uint64","name":"timestamp","type":"uint64"}],"stateMutability":"view","type":"function"},{"inputs":[],"name":"getBtcPriceWei","outputs":[{"internalType":"uint256","name":"price","type":"uint256"},{"internalType":"uint64","name":"timestamp","type":"uint64"}],"stateMutability":"view","type":"function"},{"inputs":[],"name":"getFreshBtcPrice","outputs":[{"internalType":"uint256","name":"price","type":"uint256"},{"internalType":"int8","name":"decimals","type":"int8"},{"internalType":"uint64","name":"timestamp","type":"uint64"}],"stateMutability":"view","type":"function"},{"inputs":[],"name":"isBtcPriceFresh","outputs":[{"internalType":"bool","name":"isFresh","type":"bool"}],"stateMutability":"view","type":"function"}],"evm":{"bytecode":{"linkReferences":{},"object":"608060405234801561001057600080fd5b50610a35806100206000396000f3fe608060405234801561001057600080fd5b506004361061009e5760003560e01c80638549fe8d116100665780638549fe8d1461016b5780639d7f7e861461018c578063b991826f14610195578063c9699cea146101a5578063dd775419146101ad57600080fd5b806302a81708146100a357806320249cf1146100ca5780633a3610bc146100fd57806341e3e09f1461012d5780636c24bb9b14610153575b600080fd5b6100b466509510cbd554d160c21b81565b6040516100c191906108a8565b60405180910390f35b6100e573ad67fe66660fb8dfe9d6b1b4240d8650e30f601981565b6040516001600160a01b0390911681526020016100c1565b6101056101c0565b6040805193845260009290920b602084015267ffffffffffffffff16908201526060016100c1565b6101356102c2565b6040805192835267ffffffffffffffff9091166020830152016100c1565b61015b6103bf565b60405190151581526020016100c1565b61017e6101793660046108c1565b6104db565b6040519081526020016100c1565b61017e610e1081565b66509510cbd554d160c21b6100b4565b6101056105f8565b61017e6101bb3660046108c1565b610759565b60008060008073ad67fe66660fb8dfe9d6b1b4240d8650e30f60196001600160a01b031663c3e57b446040518163ffffffff1660e01b8152600401602060405180830381865afa158015610218573d6000803e3d6000fd5b505050506040513d601f19601f8201168201806040525081019061023c91906108da565b6040516349f4fc0360e11b81529091506001600160a01b038216906393e9f806906102759066509510cbd554d160c21b906004016108a8565b606060405180830381865afa158015610292573d6000803e3d6000fd5b505050506040513d601f19601f820116820180604052508101906102b69190610927565b93509350935050909192565b600080600073ad67fe66660fb8dfe9d6b1b4240d8650e30f60196001600160a01b031663c3e57b446040518163ffffffff1660e01b8152600401602060405180830381865afa158015610319573d6000803e3d6000fd5b505050506040513d601f19601f8201168201806040525081019061033d91906108da565b604051632cff56fb60e11b81529091506001600160a01b038216906359feadf6906103769066509510cbd554d160c21b906004016108a8565b6040805180830381865afa158015610392573d6000803e3d6000fd5b505050506040513d601f19601f820116820180604052508101906103b6919061096b565b92509250509091565b60008073ad67fe66660fb8dfe9d6b1b4240d8650e30f60196001600160a01b031663c3e57b446040518163ffffffff1660e01b8152600401602060405180830381865afa158015610414573d6000803e3d6000fd5b505050506040513d601f19601f8201168201806040525081019061043891906108da565b6040516349f4fc0360e11b81529091506000906001600160a01b038316906393e9f806906104749066509510cbd554d160c21b906004016108a8565b606060405180830381865afa158015610491573d6000803e3d6000fd5b505050506040513d601f19601f820116820180604052508101906104b59190610927565b92505050610e108167ffffffffffffffff16426104d291906109ad565b11159250505090565b60008073ad67fe66660fb8dfe9d6b1b4240d8650e30f60196001600160a01b031663c3e57b446040518163ffffffff1660e01b8152600401602060405180830381865afa158015610530573d6000803e3d6000fd5b505050506040513d601f19601f8201168201806040525081019061055491906108da565b604051632cff56fb60e11b81529091506000906001600160a01b038316906359feadf6906105909066509510cbd554d160c21b906004016108a8565b6040805180830381865afa1580156105ac573d6000803e3d6000fd5b505050506040513d601f19601f820116820180604052508101906105d0919061096b565b509050670de0b6b3a76400006105e682866109c6565b6105f091906109dd565b949350505050565b60008060008073ad67fe66660fb8dfe9d6b1b4240d8650e30f60196001600160a01b031663c3e57b446040518163ffffffff1660e01b8152600401602060405180830381865afa158015610650573d6000803e3d6000fd5b505050506040513d601f19601f8201168201806040525081019061067491906108da565b6040516349f4fc0360e11b81529091506001600160a01b038216906393e9f806906106ad9066509510cbd554d160c21b906004016108a8565b606060405180830381865afa1580156106ca573d6000803e3d6000fd5b505050506040513d601f19601f820116820180604052508101906106ee9190610927565b91955093509150610e1061070c67ffffffffffffffff8416426109ad565b11156107535760405162461bcd60e51b8152602060048201526011602482015270109510c81c1c9a58d9481d1bdbc81bdb19607a1b60448201526064015b60405180910390fd5b50909192565b60008073ad67fe66660fb8dfe9d6b1b4240d8650e30f60196001600160a01b031663c3e57b446040518163ffffffff1660e01b8152600401602060405180830381865afa1580156107ae573d6000803e3d6000fd5b505050506040513d601f19601f820116820180604052508101906107d291906108da565b604051632cff56fb60e11b81529091506000906001600160a01b038316906359feadf69061080e9066509510cbd554d160c21b906004016108a8565b6040805180830381865afa15801561082a573d6000803e3d6000fd5b505050506040513d601f19601f8201168201806040525081019061084e919061096b565b509050600081116108955760405162461bcd60e51b8152602060048201526011602482015270496e76616c69642042544320707269636560781b604482015260640161074a565b806105e685670de0b6b3a76400006109c6565b6affffffffffffffffffffff1991909116815260200190565b6000602082840312156108d357600080fd5b5035919050565b6000602082840312156108ec57600080fd5b81516001600160a01b038116811461090357600080fd5b9392505050565b805167ffffffffffffffff8116811461092257600080fd5b919050565b60008060006060848603121561093c57600080fd5b8351925060208401518060000b811461095457600080fd5b91506109626040850161090a565b90509250925092565b6000806040838503121561097e57600080fd5b8251915061098e6020840161090a565b90509250929050565b634e487b7160e01b600052601160045260246000fd5b818103818111156109c0576109c0610997565b92915050565b80820281158282048414176109c0576109c0610997565b6000826109fa57634e487b7160e01b600052601260045260246000fd5b50049056fea26469706673582212204310ec9dd5908e29f297c6f833604ff037fc3e15402814dd8b9049ddb822305664736f6c63430008130033","opcodes":"PUSH1 0x80 PUSH1 0x40 MSTORE CALLVALUE DUP1 ISZERO PUSH2 0x10 JUMPI PUSH1 0x0 DUP1 REVERT JUMPDEST POP PUSH2 0xA35 DUP1 PUSH2 0x20 PUSH1 0x0 CODECOPY PUSH1 0x0 RETURN INVALID PUSH1 0x80 PUSH1 0x40 MSTORE CALLVALUE DUP1 ISZERO PUSH2 0x10 JUMPI PUSH1 0x0 DUP1 REVERT JUMPDEST POP PUSH1 0x4 CALLDATASIZE LT PUSH2 0x9E JUMPI PUSH1 0x0 CALLDATALOAD PUSH1 0xE0 SHR DUP1 PUSH4 0x8549FE8D GT PUSH2 0x66 JUMPI DUP1 PUSH4 0x8549FE8D EQ PUSH2 0x16B JUMPI DUP1 PUSH4 0x9D7F7E86 EQ PUSH2 0x18C JUMPI DUP1 PUSH4 0xB991826F EQ PUSH2 0x195 JUMPI DUP1 PUSH4 0xC9699CEA EQ PUSH2 0x1A5 JUMPI DUP1 PUSH4 0xDD775419 EQ PUSH2 0x1AD JUMPI PUSH1 0x0 DUP1 REVERT JUMPDEST DUP1 PUSH4 0x2A81708 EQ PUSH2 0xA3 JUMPI DUP1 PUSH4 0x20249CF1 EQ PUSH2 0xCA JUMPI DUP1 PUSH4 0x3A3610BC EQ PUSH2 0xFD JUMPI DUP1 PUSH4 0x41E3E09F EQ PUSH2 0x12D JUMPI DUP1 PUSH4 0x6C24BB9B EQ PUSH2 0x153 JUMPI JUMPDEST PUSH1 0x0 DUP1 REVERT JUMPDEST PUSH2 0xB4 PUSH7 0x509510CBD554D1 PUSH1 0xC2 SHL DUP2 JUMP JUMPDEST PUSH1 0x40 MLOAD PUSH2 0xC1 SWAP2 SWAP1 PUSH2 0x8A8 JUMP JUMPDEST PUSH1 0x40 MLOAD DUP1 SWAP2 SUB SWAP1 RETURN JUMPDEST PUSH2 0xE5 PUSH20 0xAD67FE66660FB8DFE9D6B1B4240D8650E30F6019 DUP2 JUMP JUMPDEST PUSH1 0x40 MLOAD PUSH1 0x1 PUSH1 0x1 PUSH1 0xA0 SHL SUB SWAP1 SWAP2 AND DUP2 MSTORE PUSH1 0x20 ADD PUSH2 0xC1 JUMP JUMPDEST PUSH2 0x105 PUSH2 0x1C0 JUMP JUMPDEST PUSH1 0x40 DUP1 MLOAD SWAP4 DUP5 MSTORE PUSH1 0x0 SWAP3 SWAP1 SWAP3 SIGNEXTEND PUSH1 0x20 DUP5 ADD MSTORE PUSH8 0xFFFFFFFFFFFFFFFF AND SWAP1 DUP3 ADD MSTORE PUSH1 0x60 ADD PUSH2 0xC1 JUMP JUMPDEST PUSH2 0x135 PUSH2 0x2C2 JUMP JUMPDEST PUSH1 0x40 DUP1 MLOAD SWAP3 DUP4 MSTORE PUSH8 0xFFFFFFFFFFFFFFFF SWAP1 SWAP2 AND PUSH1 0x20 DUP4 ADD MSTORE ADD PUSH2 0xC1 JUMP JUMPDEST PUSH2 0x15B PUSH2 0x3BF JUMP JUMPDEST PUSH1 0x40 MLOAD SWAP1 ISZERO ISZERO DUP2 MSTORE PUSH1 0x20 ADD PUSH2 0xC1 JUMP JUMPDEST PUSH2 0x17E PUSH2 0x179 CALLDATASIZE PUSH1 0x4 PUSH2 0x8C1 JUMP JUMPDEST PUSH2 0x4DB JUMP JUMPDEST PUSH1 0x40 MLOAD SWAP1 DUP2 MSTORE PUSH1 0x20 ADD PUSH2 0xC1 JUMP JUMPDEST PUSH2 0x17E PUSH2 0xE10 DUP2 JUMP JUMPDEST PUSH7 0x509510CBD554D1 PUSH1 0xC2 SHL PUSH2 0xB4 JUMP JUMPDEST PUSH2 0x105 PUSH2 0x5F8 JUMP JUMPDEST PUSH2 0x17E PUSH2 0x1BB CALLDATASIZE PUSH1 0x4 PUSH2 0x8C1 JUMP JUMPDEST PUSH2 0x759 JUMP JUMPDEST PUSH1 0x0 DUP1 PUSH1 0x0 DUP1 PUSH20 0xAD67FE66660FB8DFE9D6B1B4240D8650E30F6019 PUSH1 0x1 PUSH1 0x1 PUSH1 0xA0 SHL SUB AND PUSH4 0xC3E57B44 PUSH1 0x40 MLOAD DUP2 PUSH4 0xFFFFFFFF AND PUSH1 0xE0 SHL DUP2 MSTORE PUSH1 0x4 ADD PUSH1 0x20 PUSH1 0x40 MLOAD DUP1 DUP4 SUB DUP2 DUP7 GAS STATICCALL ISZERO DUP1 ISZERO PUSH2 0x218 JUMPI RETURNDATASIZE PUSH1 0x0 DUP1 RETURNDATACOPY RETURNDATASIZE PUSH1 0x0 REVERT JUMPDEST POP POP POP POP PUSH1 0x40 MLOAD RETURNDATASIZE PUSH1 0x1F NOT PUSH1 0x1F DUP3 ADD AND DUP3 ADD DUP1 PUSH1 0x40 MSTORE POP DUP2 ADD SWAP1 PUSH2 0x23C SWAP2 SWAP1 PUSH2 0x8DA JUMP JUMPDEST PUSH1 0x40 MLOAD PUSH4 0x49F4FC03 PUSH1 0xE1 SHL DUP2 MSTORE SWAP1 SWAP2 POP PUSH1 0x1 PUSH1 0x1 PUSH1 0xA0 SHL SUB DUP3 AND SWAP1 PUSH4 0x93E9F806 SWAP1 PUSH2 0x275 SWAP1 PUSH7 0x509510CBD554D1 PUSH1 0xC2 SHL SWAP1 PUSH1 0x4 ADD PUSH2 0x8A8 JUMP JUMPDEST PUSH1 0x60 PUSH1 0x40 MLOAD DUP1 DUP4 SUB DUP2 DUP7 GAS STATICCALL ISZERO DUP1 ISZERO PUSH2 0x292 JUMPI RETURNDATASIZE PUSH1 0x0 DUP1 RETURNDATACOPY RETURNDATASIZE PUSH1 0x0 REVERT JUMPDEST POP POP POP POP PUSH1 0x40 MLOAD RETURNDATASIZE PUSH1 0x1F NOT PUSH1 0x1F DUP3 ADD AND DUP3 ADD DUP1 PUSH1 0x40 MSTORE POP DUP2 ADD SWAP1 PUSH2 0x2B6 SWAP2 SWAP1 PUSH2 0x927 JUMP JUMPDEST SWAP4 POP SWAP4 POP SWAP4 POP POP SWAP1 SWAP2 SWAP3 JUMP JUMPDEST PUSH1 0x0 DUP1 PUSH1 0x0 PUSH20 0xAD67FE66660FB8DFE9D6B1B4240D8650E30F6019 PUSH1 0x1 PUSH1 0x1 PUSH1 0xA0 SHL SUB AND PUSH4 0xC3E57B44 PUSH1 0x40 MLOAD DUP2 PUSH4 0xFFFFFFFF AND PUSH1 0xE0 SHL DUP2 MSTORE PUSH1 0x4 ADD PUSH1 0x20 PUSH1 0x40 MLOAD DUP1 DUP4 SUB DUP2 DUP7 GAS STATICCALL ISZERO DUP1 ISZERO PUSH2 0x319 JUMPI RETURNDATASIZE PUSH1 0x0 DUP1 RETURNDATACOPY RETURNDATASIZE PUSH1 0x0 REVERT JUMPDEST POP POP POP POP PUSH1 0x40 MLOAD RETURNDATASIZE PUSH1 0x1F NOT PUSH1 0x1F DUP3 ADD AND DUP3 ADD DUP1 PUSH1 0x40 MSTORE POP DUP2 ADD SWAP1 PUSH2 0x33D SWAP2 SWAP1 PUSH2 0x8DA JUMP JUMPDEST PUSH1 0x40 MLOAD PUSH4 0x2CFF56FB PUSH1 0xE1 SHL DUP2 MSTORE SWAP1 SWAP2 POP PUSH1 0x1 PUSH1 0x1 PUSH1 0xA0 SHL SUB DUP3 AND SWAP1 PUSH4 0x59FEADF6 SWAP1 PUSH2 0x376 SWAP1 PUSH7 0x509510CBD554D1 PUSH1 0xC2 SHL SWAP1 PUSH1 0x4 ADD PUSH2 0x8A8 JUMP JUMPDEST PUSH1 0x40 DUP1 MLOAD DUP1 DUP4 SUB DUP2 DUP7 GAS STATICCALL ISZERO DUP1 ISZERO PUSH2 0x392 JUMPI RETURNDATASIZE PUSH1 0x0 DUP1 RETURNDATACOPY RETURNDATASIZE PUSH1 0x0 REVERT JUMPDEST POP POP POP POP PUSH1 0x40 MLOAD RETURNDATASIZE PUSH1 0x1F NOT PUSH1 0x1F DUP3 ADD AND DUP3 ADD DUP1 PUSH1 0x40 MSTORE POP DUP2 ADD SWAP1 PUSH2 0x3B6 SWAP2 SWAP1 PUSH2 0x96B JUMP JUMPDEST SWAP3 POP SWAP3 POP POP SWAP1 SWAP2 JUMP JUMPDEST PUSH1 0x0 DUP1 PUSH20 0xAD67FE66660FB8DFE9D6B1B4240D8650E30F6019 PUSH1 0x1 PUSH1 0x1 PUSH1 0xA0 SHL SUB AND PUSH4 0xC3E57B44 PUSH1 0x40 MLOAD DUP2 PUSH4 0xFFFFFFFF AND PUSH1 0xE0 SHL DUP2 MSTORE PUSH1 0x4 ADD PUSH1 0x20 PUSH1 0x40 MLOAD DUP1 DUP4 SUB DUP2 DUP7 GAS STATICCALL ISZERO DUP1 ISZERO PUSH2 0x414 JUMPI RETURNDATASIZE PUSH1 0x0 DUP1 RETURNDATACOPY RETURNDATASIZE PUSH1 0x0 REVERT JUMPDEST POP POP POP POP PUSH1 0x40 MLOAD RETURNDATASIZE PUSH1 0x1F NOT PUSH1 0x1F DUP3 ADD AND DUP3 ADD DUP1 PUSH1 0x40 MSTORE POP DUP2 ADD SWAP1 PUSH2 0x438 SWAP2 SWAP1 PUSH2 0x8DA JUMP JUMPDEST PUSH1 0x40 MLOAD PUSH4 0x49F4FC03 PUSH1 0xE1 SHL DUP2 MSTORE SWAP1 SWAP2 POP PUSH1 0x0 SWAP1 PUSH1 0x1 PUSH1 0x1 PUSH1 0xA0 SHL SUB DUP4 AND SWAP1 PUSH4 0x93E9F806 SWAP1 PUSH2 0x474 SWAP1 PUSH7 0x509510CBD554D1 PUSH1 0xC2 SHL SWAP1 PUSH1 0x4 ADD PUSH2 0x8A8 JUMP JUMPDEST PUSH1 0x60 PUSH1 0x40 MLOAD DUP1 DUP4 SUB DUP2 DUP7 GAS STATICCALL ISZERO DUP1 ISZERO PUSH2 0x491 JUMPI RETURNDATASIZE PUSH1 0x0 DUP1 RETURNDATACOPY RETURNDATASIZE PUSH1 0x0 REVERT JUMPDEST POP POP POP POP PUSH1 0x40 MLOAD RETURNDATASIZE PUSH1 0x1F NOT PUSH1 0x1F DUP3 ADD AND DUP3 ADD DUP1 PUSH1 0x40 MSTORE POP DUP2 ADD SWAP1 PUSH2 0x4B5 SWAP2 SWAP1 PUSH2 0x927 JUMP JUMPDEST SWAP3 POP POP POP PUSH2 0xE10 DUP2 PUSH8 0xFFFFFFFFFFFFFFFF AND TIMESTAMP PUSH2 0x4D2 SWAP2 SWAP1 PUSH2 0x9AD JUMP JUMPDEST GT ISZERO SWAP3 POP POP POP SWAP1 JUMP JUMPDEST PUSH1 0x0 DUP1 PUSH20 0xAD67FE66660FB8DFE9D6B1B4240D8650E30F6019 PUSH1 0x1 PUSH1 0x1 PUSH1 0xA0 SHL SUB AND PUSH4 0xC3E57B44 PUSH1 0x40 MLOAD DUP2 PUSH4 0xFFFFFFFF AND PUSH1 0xE0 SHL DUP2 MSTORE PUSH1 0x4 ADD PUSH1 0x20 PUSH1 0x40 MLOAD DUP1 DUP4 SUB DUP2 DUP7 GAS STATICCALL ISZERO DUP1 ISZERO PUSH2 0x530 JUMPI RETURNDATASIZE PUSH1 0x0 DUP1 RETURNDATACOPY RETURNDATASIZE PUSH1 0x0 REVERT JUMPDEST POP POP POP POP PUSH1 0x40 MLOAD RETURNDATASIZE PUSH1 0x1F NOT PUSH1 0x1F DUP3 ADD AND DUP3 ADD DUP1 PUSH1 0x40 MSTORE POP DUP2 ADD SWAP1 PUSH2 0x554 SWAP2 SWAP1 PUSH2 0x8DA JUMP JUMPDEST PUSH1 0x40 MLOAD PUSH4 0x2CFF56FB PUSH1 0xE1 SHL DUP2 MSTORE SWAP1 SWAP2 POP PUSH1 0x0 SWAP1 PUSH1 0x1 PUSH1 0x1 PUSH1 0xA0 SHL SUB DUP4 AND SWAP1 PUSH4 0x59FEADF6 SWAP1 PUSH2 0x590 SWAP1 PUSH7 0x509510CBD554D1 PUSH1 0xC2 SHL SWAP1 PUSH1 0x4 ADD PUSH2 0x8A8 JUMP JUMPDEST PUSH1 0x40 DUP1 MLOAD DUP1 DUP4 SUB DUP2 DUP7 GAS STATICCALL ISZERO DUP1 ISZERO PUSH2 0x5AC JUMPI RETURNDATASIZE PUSH1 0x0 DUP1 RETURNDATACOPY RETURNDATASIZE PUSH1 0x0 REVERT JUMPDEST POP POP POP POP PUSH1 0x40 MLOAD RETURNDATASIZE PUSH1 0x1F NOT PUSH1 0x1F DUP3 ADD AND DUP3 ADD DUP1 PUSH1 0x40 MSTORE POP DUP2 ADD SWAP1 PUSH2 0x5D0 SWAP2 SWAP1 PUSH2 0x96B JUMP JUMPDEST POP SWAP1 POP PUSH8 0xDE0B6B3A7640000 PUSH2 0x5E6 DUP3 DUP7 PUSH2 0x9C6 JUMP JUMPDEST PUSH2 0x5F0 SWAP2 SWAP1 PUSH2 0x9DD JUMP JUMPDEST SWAP5 SWAP4 POP POP POP POP JUMP JUMPDEST PUSH1 0x0 DUP1 PUSH1 0x0 DUP1 PUSH20 0xAD67FE66660FB8DFE9D6B1B4240D8650E30F6019 PUSH1 0x1 PUSH1 0x1 PUSH1 0xA0 SHL SUB AND PUSH4 0xC3E57B44 PUSH1 0x40 MLOAD DUP2 PUSH4 0xFFFFFFFF AND PUSH1 0xE0 SHL DUP2 MSTORE PUSH1 0x4 ADD PUSH1 0x20 PUSH1 0x40 MLOAD DUP1 DUP4 SUB DUP2 DUP7 GAS STATICCALL ISZERO DUP1 ISZERO PUSH2 0x650 JUMPI RETURNDATASIZE PUSH1 0x0 DUP1 RETURNDATACOPY RETURNDATASIZE PUSH1 0x0 REVERT JUMPDEST POP POP POP POP PUSH1 0x40 MLOAD RETURNDATASIZE PUSH1 0x1F NOT PUSH1 0x1F DUP3 ADD AND DUP3 ADD DUP1 PUSH1 0x40 MSTORE POP DUP2 ADD SWAP1 PUSH2 0x674 SWAP2 SWAP1 PUSH2 0x8DA JUMP JUMPDEST PUSH1 0x40 MLOAD PUSH4 0x49F4FC03 PUSH1 0xE1 SHL DUP2 MSTORE SWAP1 SWAP2 POP PUSH1 0x1 PUSH1 0x1 PUSH1 0xA0 SHL SUB DUP3 AND SWAP1 PUSH4 0x93E9F806 SWAP1 PUSH2 0x6AD SWAP1 PUSH7 0x509510CBD554D1 PUSH1 0xC2 SHL SWAP1 PUSH1 0x4 ADD PUSH2 0x8A8 JUMP JUMPDEST PUSH1 0x60 PUSH1 0x40 MLOAD DUP1 DUP4 SUB DUP2 DUP7 GAS STATICCALL ISZERO DUP1 ISZERO PUSH2 0x6CA JUMPI RETURNDATASIZE PUSH1 0x0 DUP1 RETURNDATACOPY RETURNDATASIZE PUSH1 0x0 REVERT JUMPDEST POP POP POP POP PUSH1 0x40 MLOAD RETURNDATASIZE PUSH1 0x1F NOT PUSH1 0x1F DUP3 ADD AND DUP3 ADD DUP1 PUSH1 0x40 MSTORE POP DUP2 ADD SWAP1 PUSH2 0x6EE SWAP2 SWAP1 PUSH2 0x927 JUMP JUMPDEST SWAP2 SWAP6 POP SWAP4 POP SWAP2 POP PUSH2 0xE10 PUSH2 0x70C PUSH8 0xFFFFFFFFFFFFFFFF DUP5 AND TIMESTAMP PUSH2 0x9AD JUMP JUMPDEST GT ISZERO PUSH2 0x753 JUMPI PUSH1 0x40 MLOAD PUSH3 0x461BCD PUSH1 0xE5 SHL DUP2 MSTORE PUSH1 0x20 PUSH1 0x4 DUP3 ADD MSTORE PUSH1 0x11 PUSH1 0x24 DUP3 ADD MSTORE PUSH17 0x109510C81C1C9A58D9481D1BDBC81BDB19 PUSH1 0x7A SHL PUSH1 0x44 DUP3 ADD MSTORE PUSH1 0x64 ADD JUMPDEST PUSH1 0x40 MLOAD DUP1 SWAP2 SUB SWAP1 REVERT JUMPDEST POP SWAP1 SWAP2 SWAP3 JUMP JUMPDEST PUSH1 0x0 DUP1 PUSH20 0xAD67FE66660FB8DFE9D6B1B4240D8650E30F6019 PUSH1 0x1 PUSH1 0x1 PUSH1 0xA0 SHL SUB AND PUSH4 0xC3E57B44 PUSH1 0x40 MLOAD DUP2 PUSH4 0xFFFFFFFF AND PUSH1 0xE0 SHL DUP2 MSTORE PUSH1 0x4 ADD PUSH1 0x20 PUSH1 0x40 MLOAD DUP1 DUP4 SUB DUP2 DUP7 GAS STATICCALL ISZERO DUP1 ISZERO PUSH2 0x7AE JUMPI RETURNDATASIZE PUSH1 0x0 DUP1 RETURNDATACOPY RETURNDATASIZE PUSH1 0x0 REVERT JUMPDEST POP POP POP POP PUSH1 0x40 MLOAD RETURNDATASIZE PUSH1 0x1F NOT PUSH1 0x1F DUP3 ADD AND DUP3 ADD DUP1 PUSH1 0x40 MSTORE POP DUP2 ADD SWAP1 PUSH2 0x7D2 SWAP2 SWAP1 PUSH2 0x8DA JUMP JUMPDEST PUSH1 0x40 MLOAD PUSH4 0x2CFF56FB PUSH1 0xE1 SHL DUP2 MSTORE SWAP1 SWAP2 POP PUSH1 0x0 SWAP1 PUSH1 0x1 PUSH1 0x1 PUSH1 0xA0 SHL SUB DUP4 AND SWAP1 PUSH4 0x59FEADF6 SWAP1 PUSH2 0x80E SWAP1 PUSH7 0x509510CBD554D1 PUSH1 0xC2 SHL SWAP1 PUSH1 0x4 ADD PUSH2 0x8A8 JUMP JUMPDEST PUSH1 0x40 DUP1 MLOAD DUP1 DUP4 SUB DUP2 DUP7 GAS STATICCALL ISZERO DUP1 ISZERO PUSH2 0x82A JUMPI RETURNDATASIZE PUSH1 0x0 DUP1 RETURNDATACOPY RETURNDATASIZE PUSH1 0x0 REVERT JUMPDEST POP POP POP POP PUSH1 0x40 MLOAD RETURNDATASIZE PUSH1 0x1F NOT PUSH1 0x1F DUP3 ADD AND DUP3 ADD DUP1 PUSH1 0x40 MSTORE POP DUP2 ADD SWAP1 PUSH2 0x84E SWAP2 SWAP1 PUSH2 0x96B JUMP JUMPDEST POP SWAP1 POP PUSH1 0x0 DUP2 GT PUSH2 0x895 JUMPI PUSH1 0x40 MLOAD PUSH3 0x461BCD PUSH1 0xE5 SHL DUP2 MSTORE PUSH1 0x20 PUSH1 0x4 DUP3 ADD MSTORE PUSH1 0x11 PUSH1 0x24 DUP3 ADD MSTORE PUSH17 0x496E76616C696420425443207072696365 PUSH1 0x78 SHL PUSH1 0x44 DUP3 ADD MSTORE PUSH1 0x64 ADD PUSH2 0x74A JUMP JUMPDEST DUP1 PUSH2 0x5E6 DUP6 PUSH8 0xDE0B6B3A7640000 PUSH2 0x9C6 JUMP JUMPDEST PUSH11 0xFFFFFFFFFFFFFFFFFFFFFF NOT SWAP2 SWAP1 SWAP2 AND DUP2 MSTORE PUSH1 0x20 ADD SWAP1 JUMP JUMPDEST PUSH1 0x0 PUSH1 0x20 DUP3 DUP5 SUB SLT ISZERO PUSH2 0x8D3 JUMPI PUSH1 0x0 DUP1 REVERT JUMPDEST POP CALLDATALOAD SWAP2 SWAP1 POP JUMP JUMPDEST PUSH1 0x0 PUSH1 0x20 DUP3 DUP5 SUB SLT ISZERO PUSH2 0x8EC JUMPI PUSH1 0x0 DUP1 REVERT JUMPDEST DUP2 MLOAD PUSH1 0x1 PUSH1 0x1 PUSH1 0xA0 SHL SUB DUP2 AND DUP2 EQ PUSH2 0x903 JUMPI PUSH1 0x0 DUP1 REVERT JUMPDEST SWAP4 SWAP3 POP POP POP JUMP JUMPDEST DUP1 MLOAD PUSH8 0xFFFFFFFFFFFFFFFF DUP2 AND DUP2 EQ PUSH2 0x922 JUMPI PUSH1 0x0 DUP1 REVERT JUMPDEST SWAP2 SWAP1 POP JUMP JUMPDEST PUSH1 0x0 DUP1 PUSH1 0x0 PUSH1 0x60 DUP5 DUP7 SUB SLT ISZERO PUSH2 0x93C JUMPI PUSH1 0x0 DUP1 REVERT JUMPDEST DUP4 MLOAD SWAP3 POP PUSH1 0x20 DUP5 ADD MLOAD DUP1 PUSH1 0x0 SIGNEXTEND DUP2 EQ PUSH2 0x954 JUMPI PUSH1 0x0 DUP1 REVERT JUMPDEST SWAP2 POP PUSH2 0x962 PUSH1 0x40 DUP6 ADD PUSH2 0x90A JUMP JUMPDEST SWAP1 POP SWAP3 POP SWAP3 POP SWAP3 JUMP JUMPDEST PUSH1 0x0 DUP1 PUSH1 0x40 DUP4 DUP6 SUB SLT ISZERO PUSH2 0x97E JUMPI PUSH1 0x0 DUP1 REVERT JUMPDEST DUP3 MLOAD SWAP2 POP PUSH2 0x98E PUSH1 0x20 DUP5 ADD PUSH2 0x90A JUMP JUMPDEST SWAP1 POP SWAP3 POP SWAP3 SWAP1 POP JUMP JUMPDEST PUSH4 0x4E487B71 PUSH1 0xE0 SHL PUSH1 0x0 MSTORE PUSH1 0x11 PUSH1 0x4 MSTORE PUSH1 0x24 PUSH1 0x0 REVERT JUMPDEST DUP2 DUP2 SUB DUP2 DUP2 GT ISZERO PUSH2 0x9C0 JUMPI PUSH2 0x9C0 PUSH2 0x997 JUMP JUMPDEST SWAP3 SWAP2 POP POP JUMP JUMPDEST DUP1 DUP3 MUL DUP2 ISZERO DUP3 DUP3 DIV DUP5 EQ OR PUSH2 0x9C0 JUMPI PUSH2 0x9C0 PUSH2 0x997 JUMP JUMPDEST PUSH1 0x0 DUP3 PUSH2 0x9FA JUMPI PUSH4 0x4E487B71 PUSH1 0xE0 SHL PUSH1 0x0 MSTORE PUSH1 0x12 PUSH1 0x4 MSTORE PUSH1 0x24 PUSH1 0x0 REVERT JUMPDEST POP DIV SWAP1 JUMP INVALID LOG2 PUSH5 0x6970667358 0x22 SLT KECCAK256 NUMBER LT 0xEC SWAP14 0xD5 SWAP1 DUP15 0x29 CALLCODE SWAP8 0xC6 0xF8 CALLER PUSH1 0x4F CREATE CALLDATACOPY 0xFC RETURNDATACOPY ISZERO BLOCKHASH 0x28 EQ 0xDD DUP12 SWAP1 0x49 0xDD 0xB8 0x22 ADDRESS JUMP PUSH5 0x736F6C6343 STOP ADDMOD SGT STOP CALLER "},"methodIdentifiers":{"BTC_USD_FEED_ID()":"02a81708","FLARE_CONTRACT_REGISTRY()":"20249cf1","MAX_PRICE_AGE()":"9d7f7e86","calculateBtcAmountForUsd(uint256)":"dd775419","calculateBtcUsdValue(uint256)":"8549fe8d","getBtcFeedId()":"b991826f","getBtcPrice()":"3a3610bc","getBtcPriceWei()":"41e3e09f","getFreshBtcPrice()":"c9699cea","isBtcPriceFresh()":"6c24bb9b"}}}}}