{
  "_format": "hh-sol-artifact-1",
  "contractName": "FTSOPriceOracle",
  "sourceName": "contracts/FTSOPriceOracle.sol",
  "abi": [
    {
      "anonymous": false,
      "inputs": [
        {
          "indexed": false,
          "internalType": "uint256",
          "name": "price",
          "type": "uint256"
        },
        {
          "indexed": false,
          "internalType": "uint64",
          "name": "timestamp",
          "type": "uint64"
        }
      ],
      "name": "PriceRequested",
      "type": "event"
    },
    {
      "inputs": [],
      "name": "BTC_USD_FEED_ID",
      "outputs": [
        {
          "internalType": "bytes21",
          "name": "",
          "type": "bytes21"
        }
      ],
      "stateMutability": "view",
      "type": "function"
    },
    {
      "inputs": [],
      "name": "FLARE_CONTRACT_REGISTRY",
      "outputs": [
        {
          "internalType": "contract IContractRegistry",
          "name": "",
          "type": "address"
        }
      ],
      "stateMutability": "view",
      "type": "function"
    },
    {
      "inputs": [],
      "name": "MAX_PRICE_AGE",
      "outputs": [
        {
          "internalType": "uint256",
          "name": "",
          "type": "uint256"
        }
      ],
      "stateMutability": "view",
      "type": "function"
    },
    {
      "inputs": [
        {
          "internalType": "uint256",
          "name": "usdValue",
          "type": "uint256"
        }
      ],
      "name": "calculateBtcAmountForUsd",
      "outputs": [
        {
          "internalType": "uint256",
          "name": "btcAmount",
          "type": "uint256"
        }
      ],
      "stateMutability": "view",
      "type": "function"
    },
    {
      "inputs": [
        {
          "internalType": "uint256",
          "name": "btcAmount",
          "type": "uint256"
        }
      ],
      "name": "calculateBtcUsdValue",
      "outputs": [
        {
          "internalType": "uint256",
          "name": "usdValue",
          "type": "uint256"
        }
      ],
      "stateMutability": "view",
      "type": "function"
    },
    {
      "inputs": [],
      "name": "getBtcFeedId",
      "outputs": [
        {
          "internalType": "bytes21",
          "name": "feedId",
          "type": "bytes21"
        }
      ],
      "stateMutability": "pure",
      "type": "function"
    },
    {
      "inputs": [],
      "name": "getBtcPrice",
      "outputs": [
        {
          "internalType": "uint256",
          "name": "price",
          "type": "uint256"
        },
        {
          "internalType": "int8",
          "name": "decimals",
          "type": "int8"
        },
        {
          "internalType": "uint64",
          "name": "timestamp",
          "type": "uint64"
        }
      ],
      "stateMutability": "view",
      "type": "function"
    },
    {
      "inputs": [],
      "name": "getBtcPriceWei",
      "outputs": [
        {
          "internalType": "uint256",
          "name": "price",
          "type": "uint256"
        },
        {
          "internalType": "uint64",
          "name": "timestamp",
          "type": "uint64"
        }
      ],
      "stateMutability": "view",
      "type": "function"
    },
    {
      "inputs": [],
      "name": "getFreshBtcPrice",
      "outputs": [
        {
          "internalType": "uint256",
          "name": "price",
          "type": "uint256"
        },
        {
          "internalType": "int8",
          "name": "decimals",
          "type": "int8"
        },
        {
          "internalType": "uint64",
          "name": "timestamp",
          "type": "uint64"
        }
      ],
      "stateMutability": "view",
      "type": "function"
    },
    {
      "inputs": [],
      "name": "isBtcPriceFresh",
      "outputs": [
        {
          "internalType": "bool",
          "name": "isFresh",
          "type": "bool"
        }
      ],
      "stateMutability": "view",
      "type": "function"
    }
  ],
  "bytecode": "0x608060405234801561001057600080fd5b50610a35806100206000396000f3fe608060405234801561001057600080fd5b506004361061009e5760003560e01c80638549fe8d116100665780638549fe8d1461016b5780639d7f7e861461018c578063b991826f14610195578063c9699cea146101a5578063dd775419146101ad57600080fd5b806302a81708146100a357806320249cf1146100ca5780633a3610bc146100fd57806341e3e09f1461012d5780636c24bb9b14610153575b600080fd5b6100b466509510cbd554d160c21b81565b6040516100c191906108a8565b60405180910390f35b6100e573ad67fe66660fb8dfe9d6b1b4240d8650e30f601981565b6040516001600160a01b0390911681526020016100c1565b6101056101c0565b6040805193845260009290920b602084015267ffffffffffffffff16908201526060016100c1565b6101356102c2565b6040805192835267ffffffffffffffff9091166020830152016100c1565b61015b6103bf565b60405190151581526020016100c1565b61017e6101793660046108c1565b6104db565b6040519081526020016100c1565b61017e610e1081565b66509510cbd554d160c21b6100b4565b6101056105f8565b61017e6101bb3660046108c1565b610759565b60008060008073ad67fe66660fb8dfe9d6b1b4240d8650e30f60196001600160a01b031663c3e57b446040518163ffffffff1660e01b8152600401602060405180830381865afa158015610218573d6000803e3d6000fd5b505050506040513d601f19601f8201168201806040525081019061023c91906108da565b6040516349f4fc0360e11b81529091506001600160a01b038216906393e9f806906102759066509510cbd554d160c21b906004016108a8565b606060405180830381865afa158015610292573d6000803e3d6000fd5b505050506040513d601f19601f820116820180604052508101906102b69190610927565b93509350935050909192565b600080600073ad67fe66660fb8dfe9d6b1b4240d8650e30f60196001600160a01b031663c3e57b446040518163ffffffff1660e01b8152600401602060405180830381865afa158015610319573d6000803e3d6000fd5b505050506040513d601f19601f8201168201806040525081019061033d91906108da565b604051632cff56fb60e11b81529091506001600160a01b038216906359feadf6906103769066509510cbd554d160c21b906004016108a8565b6040805180830381865afa158015610392573d6000803e3d6000fd5b505050506040513d601f19601f820116820180604052508101906103b6919061096b565b92509250509091565b60008073ad67fe66660fb8dfe9d6b1b4240d8650e30f60196001600160a01b031663c3e57b446040518163ffffffff1660e01b8152600401602060405180830381865afa158015610414573d6000803e3d6000fd5b505050506040513d601f19601f8201168201806040525081019061043891906108da565b6040516349f4fc0360e11b81529091506000906001600160a01b038316906393e9f806906104749066509510cbd554d160c21b906004016108a8565b606060405180830381865afa158015610491573d6000803e3d6000fd5b505050506040513d601f19601f820116820180604052508101906104b59190610927565b92505050610e108167ffffffffffffffff16426104d291906109ad565b11159250505090565b60008073ad67fe66660fb8dfe9d6b1b4240d8650e30f60196001600160a01b031663c3e57b446040518163ffffffff1660e01b8152600401602060405180830381865afa158015610530573d6000803e3d6000fd5b505050506040513d601f19601f8201168201806040525081019061055491906108da565b604051632cff56fb60e11b81529091506000906001600160a01b038316906359feadf6906105909066509510cbd554d160c21b906004016108a8565b6040805180830381865afa1580156105ac573d6000803e3d6000fd5b505050506040513d601f19601f820116820180604052508101906105d0919061096b565b509050670de0b6b3a76400006105e682866109c6565b6105f091906109dd565b949350505050565b60008060008073ad67fe66660fb8dfe9d6b1b4240d8650e30f60196001600160a01b031663c3e57b446040518163ffffffff1660e01b8152600401602060405180830381865afa158015610650573d6000803e3d6000fd5b505050506040513d601f19601f8201168201806040525081019061067491906108da565b6040516349f4fc0360e11b81529091506001600160a01b038216906393e9f806906106ad9066509510cbd554d160c21b906004016108a8565b606060405180830381865afa1580156106ca573d6000803e3d6000fd5b505050506040513d601f19601f820116820180604052508101906106ee9190610927565b91955093509150610e1061070c67ffffffffffffffff8416426109ad565b11156107535760405162461bcd60e51b8152602060048201526011602482015270109510c81c1c9a58d9481d1bdbc81bdb19607a1b60448201526064015b60405180910390fd5b50909192565b60008073ad67fe66660fb8dfe9d6b1b4240d8650e30f60196001600160a01b031663c3e57b446040518163ffffffff1660e01b8152600401602060405180830381865afa1580156107ae573d6000803e3d6000fd5b505050506040513d601f19601f820116820180604052508101906107d291906108da565b604051632cff56fb60e11b81529091506000906001600160a01b038316906359feadf69061080e9066509510cbd554d160c21b906004016108a8565b6040805180830381865afa15801561082a573d6000803e3d6000fd5b505050506040513d601f19601f8201168201806040525081019061084e919061096b565b509050600081116108955760405162461bcd60e51b8152602060048201526011602482015270496e76616c69642042544320707269636560781b604482015260640161074a565b806105e685670de0b6b3a76400006109c6565b6affffffffffffffffffffff1991909116815260200190565b6000602082840312156108d357600080fd5b5035919050565b6000602082840312156108ec57600080fd5b81516001600160a01b038116811461090357600080fd5b9392505050565b805167ffffffffffffffff8116811461092257600080fd5b919050565b60008060006060848603121561093c57600080fd5b8351925060208401518060000b811461095457600080fd5b91506109626040850161090a565b90509250925092565b6000806040838503121561097e57600080fd5b8251915061098e6020840161090a565b90509250929050565b634e487b7160e01b600052601160045260246000fd5b818103818111156109c0576109c0610997565b92915050565b80820281158282048414176109c0576109c0610997565b6000826109fa57634e487b7160e01b600052601260045260246000fd5b50049056fea26469706673582212204310ec9dd5908e29f297c6f833604ff037fc3e15402814dd8b9049ddb822305664736f6c63430008130033",
  "linkReferences": {},
  "deployedLinkReferences": {}
}