{
  "_format": "hh-sol-artifact-1",
  "contractName": "TaskEscrow",
  "sourceName": "contracts/TaskEscrow.sol",
  "abi": [
    {
      "anonymous": false,
      "inputs": [
        {
          "indexed": false,
          "internalType": "uint256",
          "name": "taskId",
          "type": "uint256"
        }
      ],
      "name": "TaskCompleted",
      "type": "event"
    },
    {
      "anonymous": false,
      "inputs": [
        {
          "indexed": false,
          "internalType": "uint256",
          "name": "taskId",
          "type": "uint256"
        },
        {
          "indexed": false,
          "internalType": "string",
          "name": "description",
          "type": "string"
        },
        {
          "indexed": false,
          "internalType": "uint256",
          "name": "amount",
          "type": "uint256"
        },
        {
          "indexed": false,
          "internalType": "address[]",
          "name": "allowedAgents",
          "type": "address[]"
        }
      ],
      "name": "TaskCreated",
      "type": "event"
    },
    {
      "anonymous": false,
      "inputs": [
        {
          "indexed": false,
          "internalType": "uint256",
          "name": "taskId",
          "type": "uint256"
        },
        {
          "indexed": false,
          "internalType": "uint256",
          "name": "amount",
          "type": "uint256"
        }
      ],
      "name": "TaskPaid",
      "type": "event"
    },
    {
      "anonymous": false,
      "inputs": [
        {
          "indexed": false,
          "internalType": "uint256",
          "name": "taskId",
          "type": "uint256"
        },
        {
          "indexed": false,
          "internalType": "uint256",
          "name": "amount",
          "type": "uint256"
        },
        {
          "indexed": false,
          "internalType": "string",
          "name": "reason",
          "type": "string"
        }
      ],
      "name": "TaskRefunded",
      "type": "event"
    },
    {
      "inputs": [],
      "name": "COMPLETION_TIMEOUT",
      "outputs": [
        {
          "internalType": "uint256",
          "name": "",
          "type": "uint256"
        }
      ],
      "stateMutability": "view",
      "type": "function"
    },
    {
      "inputs": [],
      "name": "VERIFICATION_TIMEOUT",
      "outputs": [
        {
          "internalType": "uint256",
          "name": "",
          "type": "uint256"
        }
      ],
      "stateMutability": "view",
      "type": "function"
    },
    {
      "inputs": [
        {
          "internalType": "uint256",
          "name": "taskId",
          "type": "uint256"
        }
      ],
      "name": "canAgentClaim",
      "outputs": [
        {
          "internalType": "bool",
          "name": "canClaim",
          "type": "bool"
        },
        {
          "internalType": "string",
          "name": "reason",
          "type": "string"
        }
      ],
      "stateMutability": "view",
      "type": "function"
    },
    {
      "inputs": [
        {
          "internalType": "uint256",
          "name": "taskId",
          "type": "uint256"
        }
      ],
      "name": "canUserCancel",
      "outputs": [
        {
          "internalType": "bool",
          "name": "canCancel",
          "type": "bool"
        },
        {
          "internalType": "string",
          "name": "reason",
          "type": "string"
        }
      ],
      "stateMutability": "view",
      "type": "function"
    },
    {
      "inputs": [
        {
          "internalType": "uint256",
          "name": "taskId",
          "type": "uint256"
        }
      ],
      "name": "cancelTask",
      "outputs": [],
      "stateMutability": "nonpayable",
      "type": "function"
    },
    {
      "inputs": [
        {
          "internalType": "uint256",
          "name": "taskId",
          "type": "uint256"
        }
      ],
      "name": "claimPayment",
      "outputs": [],
      "stateMutability": "nonpayable",
      "type": "function"
    },
    {
      "inputs": [
        {
          "internalType": "uint256",
          "name": "taskId",
          "type": "uint256"
        }
      ],
      "name": "completeTask",
      "outputs": [],
      "stateMutability": "nonpayable",
      "type": "function"
    },
    {
      "inputs": [
        {
          "internalType": "string",
          "name": "description",
          "type": "string"
        },
        {
          "internalType": "address[]",
          "name": "allowedAgents",
          "type": "address[]"
        }
      ],
      "name": "createTask",
      "outputs": [],
      "stateMutability": "payable",
      "type": "function"
    },
    {
      "inputs": [
        {
          "internalType": "uint256",
          "name": "taskId",
          "type": "uint256"
        }
      ],
      "name": "getAllowedAgents",
      "outputs": [
        {
          "internalType": "address[]",
          "name": "",
          "type": "address[]"
        }
      ],
      "stateMutability": "view",
      "type": "function"
    },
    {
      "inputs": [
        {
          "internalType": "uint256",
          "name": "taskId",
          "type": "uint256"
        }
      ],
      "name": "getTask",
      "outputs": [
        {
          "components": [
            {
              "internalType": "address",
              "name": "user",
              "type": "address"
            },
            {
              "internalType": "address",
              "name": "agent",
              "type": "address"
            },
            {
              "internalType": "uint256",
              "name": "amount",
              "type": "uint256"
            },
            {
              "internalType": "string",
              "name": "description",
              "type": "string"
            },
            {
              "internalType": "bool",
              "name": "completed",
              "type": "bool"
            },
            {
              "internalType": "bool",
              "name": "verified",
              "type": "bool"
            },
            {
              "internalType": "bool",
              "name": "paid",
              "type": "bool"
            },
            {
              "internalType": "uint256",
              "name": "createdAt",
              "type": "uint256"
            },
            {
              "internalType": "uint256",
              "name": "completedAt",
              "type": "uint256"
            },
            {
              "internalType": "address[]",
              "name": "allowedAgents",
              "type": "address[]"
            }
          ],
          "internalType": "struct TaskEscrow.Task",
          "name": "",
          "type": "tuple"
        }
      ],
      "stateMutability": "view",
      "type": "function"
    },
    {
      "inputs": [
        {
          "internalType": "uint256",
          "name": "taskId",
          "type": "uint256"
        },
        {
          "internalType": "address",
          "name": "agent",
          "type": "address"
        }
      ],
      "name": "isAllowedAgent",
      "outputs": [
        {
          "internalType": "bool",
          "name": "",
          "type": "bool"
        }
      ],
      "stateMutability": "view",
      "type": "function"
    },
    {
      "inputs": [],
      "name": "nextTaskId",
      "outputs": [
        {
          "internalType": "uint256",
          "name": "",
          "type": "uint256"
        }
      ],
      "stateMutability": "view",
      "type": "function"
    },
    {
      "inputs": [
        {
          "internalType": "uint256",
          "name": "",
          "type": "uint256"
        }
      ],
      "name": "tasks",
      "outputs": [
        {
          "internalType": "address",
          "name": "user",
          "type": "address"
        },
        {
          "internalType": "address",
          "name": "agent",
          "type": "address"
        },
        {
          "internalType": "uint256",
          "name": "amount",
          "type": "uint256"
        },
        {
          "internalType": "string",
          "name": "description",
          "type": "string"
        },
        {
          "internalType": "bool",
          "name": "completed",
          "type": "bool"
        },
        {
          "internalType": "bool",
          "name": "verified",
          "type": "bool"
        },
        {
          "internalType": "bool",
          "name": "paid",
          "type": "bool"
        },
        {
          "internalType": "uint256",
          "name": "createdAt",
          "type": "uint256"
        },
        {
          "internalType": "uint256",
          "name": "completedAt",
          "type": "uint256"
        }
      ],
      "stateMutability": "view",
      "type": "function"
    },
    {
      "inputs": [
        {
          "internalType": "uint256",
          "name": "taskId",
          "type": "uint256"
        }
      ],
      "name": "verifyAndPay",
      "outputs": [],
      "stateMutability": "nonpayable",
      "type": "function"
    }
  ],
  "bytecode": "0x60806040526001805534801561001457600080fd5b50611a98806100246000396000f3fe6080604052600436106100dd5760003560e01c80638d9776721161007f578063d6b2342611610059578063d6b2342614610269578063e1e2955814610289578063fdc3d8d7146102a9578063ffaa7e8c146102bf57600080fd5b80638d97767214610201578063c222c7b114610236578063c63fdcc71461024957600080fd5b8063575157bc116100bb578063575157bc1461016d5780635a304b821461019b57806365969fdf146101b25780637eec20a8146101df57600080fd5b80631d65e77e146100e25780631e1d6e1d146101185780635100ec631461013d575b600080fd5b3480156100ee57600080fd5b506101026100fd366004611469565b6102df565b60405161010f919061150c565b60405180910390f35b34801561012457600080fd5b5061012f6203f48081565b60405190815260200161010f565b34801561014957600080fd5b5061015d6101583660046115f5565b6104d9565b604051901515815260200161010f565b34801561017957600080fd5b5061018d610188366004611469565b61056e565b60405161010f929190611621565b3480156101a757600080fd5b5061012f62093a8081565b3480156101be57600080fd5b506101d26101cd366004611469565b6106ed565b60405161010f9190611644565b3480156101eb57600080fd5b506101ff6101fa366004611469565b61075a565b005b34801561020d57600080fd5b5061022161021c366004611469565b610a29565b60405161010f9998979695949392919061165e565b6101ff6102443660046116c0565b610b0f565b34801561025557600080fd5b506101ff610264366004611469565b610d87565b34801561027557600080fd5b5061018d610284366004611469565b610f1c565b34801561029557600080fd5b506101ff6102a4366004611469565b611089565b3480156102b557600080fd5b5061012f60015481565b3480156102cb57600080fd5b506101ff6102da366004611469565b6112a9565b61034d60405180610140016040528060006001600160a01b0316815260200160006001600160a01b0316815260200160008152602001606081526020016000151581526020016000151581526020016000151581526020016000815260200160008152602001606081525090565b6000828152602081815260409182902082516101408101845281546001600160a01b039081168252600183015416928101929092526002810154928201929092526003820180549192916060840191906103a690611785565b80601f01602080910402602001604051908101604052809291908181526020018280546103d290611785565b801561041f5780601f106103f45761010080835404028352916020019161041f565b820191906000526020600020905b81548152906001019060200180831161040257829003601f168201915b5050509183525050600482015460ff8082161515602080850191909152610100830482161515604080860191909152620100009093049091161515606084015260058401546080840152600684015460a084015260078401805483518184028101840190945280845260c09094019390918301828280156104c957602002820191906000526020600020905b81546001600160a01b031681526001909101906020018083116104ab575b5050505050815250509050919050565b6000828152602081905260408120600781015482036104fc576001915050610568565b60005b600782015481101561056157836001600160a01b031682600701828154811061052a5761052a6117bf565b6000918252602090912001546001600160a01b03160361054f57600192505050610568565b80610559816117eb565b9150506104ff565b5060009150505b92915050565b600081815260208190526040812060048101546060919062010000900460ff16156105c45760006040518060400160405280600c81526020016b105b1c9958591e481c185a5960a21b8152509250925050915091565b60018101546001600160a01b031661060c57600160405180604001604052806011815260200170139bc81859d95b9d08185cdcda59db9959607a1b8152509250925050915091565b600481015460ff16158015610632575062093a80816005015461062f9190611804565b42115b156106695760016040518060400160405280600d81526020016c1059d95b9d081d1a5b595bdd5d609a1b8152509250925050915091565b600481015460ff16801561068e57506203f480816006015461068b9190611804565b42115b156106b8576000604051806060016040528060268152602001611a3d602691399250925050915091565b60006040518060400160405280601081526020016f139bdd08195b1a59da589b19481e595d60821b8152509250925050915091565b6000818152602081815260409182902060070180548351818402810184019094528084526060939283018282801561074e57602002820191906000526020600020905b81546001600160a01b03168152600190910190602001808311610730575b50505050509050919050565b600081815260208190526040902080546001600160a01b0316331461079a5760405162461bcd60e51b815260040161079190611817565b60405180910390fd5b600481015462010000900460ff16156107c55760405162461bcd60e51b81526004016107919061183e565b60018101546060906001600160a01b03166108085750604080518082019091526011815270139bc81859d95b9d08185cdcda59db9959607a1b60208201526109a1565b600482015460ff1615801561082e575062093a80826005015461082b9190611804565b42115b1561086d575060408051808201909152601d81527f4167656e742074696d656f7574202d206e6f20636f6d706c6574696f6e00000060208201526109a1565b600482015460ff16801561089257506203f480826006015461088f9190611804565b42115b156109055760405162461bcd60e51b815260206004820152603760248201527f4167656e7420636f6d706c6574656420776f726b202d2074686579206465736560448201527f727665207061796d656e742c206e6f7420726566756e640000000000000000006064820152608401610791565b600482015460ff166109595760405162461bcd60e51b815260206004820152601a60248201527f4167656e74206861732074696d6520746f20636f6d706c6574650000000000006044820152606401610791565b60405162461bcd60e51b815260206004820152601760248201527f596f7520686176652074696d6520746f207665726966790000000000000000006044820152606401610791565b60048201805462ff00001916620100001790556002820154604051339180156108fc02916000818181858888f193505050501580156109e4573d6000803e3d6000fd5b507fcf5a5b981ecfb3b37ab6777af1054c6025f91e6730ce602710c596e2b3d5f20583836002015483604051610a1c93929190611864565b60405180910390a1505050565b60006020819052908152604090208054600182015460028301546003840180546001600160a01b039485169594909316939192610a6590611785565b80601f0160208091040260200160405190810160405280929190818152602001828054610a9190611785565b8015610ade5780601f10610ab357610100808354040283529160200191610ade565b820191906000526020600020905b815481529060010190602001808311610ac157829003601f168201915b5050505060048301546005840154600690940154929360ff8083169461010084048216945062010000909304169189565b60003411610b4c5760405162461bcd60e51b815260206004820152600a6024820152694e656564206d6f6e657960b01b6044820152606401610791565b82610b8c5760405162461bcd60e51b815260206004820152601060248201526f2732b2b2103232b9b1b934b83a34b7b760811b6044820152606401610791565b604051806101400160405280336001600160a01b0316815260200160006001600160a01b0316815260200134815260200185858080601f0160208091040260200160405190810160405280939291908181526020018383808284376000920182905250938552505050602080830182905260408084018390526060840183905242608085015260a08401929092528151858202818101830190935285815260c0909301929186918691829185019084908082843760009201829052509390945250506001805482526020828152604092839020855181546001600160a01b03199081166001600160a01b03928316178355928701519382018054909316931692909217905590830151600282015560608301519091506003820190610cb190826118f1565b50608082015160048201805460a085015160c086015161ffff1990921693151561ff0019169390931761010093151584021762ff00001916620100009115159190910217905560e0830151600583015582015160068201556101208201518051610d259160078401916020909101906113ef565b509050507f3c857a30246f085b6fb0af9ebd719f582e26d3dffa3e11956a0fea1e18cd2a6d6001548585348686604051610d64969594939291906119b1565b60405180910390a160018054906000610d7c836117eb565b919050555050505050565b600081815260208190526040902060018101546001600160a01b03163314610dc15760405162461bcd60e51b815260040161079190611817565b600481015460ff16610e055760405162461bcd60e51b815260206004820152600d60248201526c139bdd0818dbdb5c1b195d1959609a1b6044820152606401610791565b600481015462010000900460ff1615610e305760405162461bcd60e51b81526004016107919061183e565b6203f4808160060154610e439190611804565b4211610e845760405162461bcd60e51b815260206004820152601060248201526f15d85a5d08199bdc881d1a5b595bdd5d60821b6044820152606401610791565b60048101805462ff0000191662010000179055600181015460028201546040516001600160a01b039092169181156108fc0291906000818181858888f19350505050158015610ed7573d6000803e3d6000fd5b5060028101546040805184815260208101929092527fb11926ec0cc5e5e2871739dd0b7135d70865402dacf6916ee3f5f7639724b5e391015b60405180910390a15050565b60008181526020819052604081206001810154606091906001600160a01b0316610f7657600060405180604001604052806011815260200170139bc81859d95b9d08185cdcda59db9959607a1b8152509250925050915091565b600481015460ff16610fb45760006040518060400160405280600d81526020016c139bdd0818dbdb5c1b195d1959609a1b8152509250925050915091565b600481015462010000900460ff1615610ff85760006040518060400160405280600c81526020016b105b1c9958591e481c185a5960a21b8152509250925050915091565b6203f480816006015461100b9190611804565b4211156110545760016040518060400160405280601c81526020017f566572696669636174696f6e2074696d656f75742072656163686564000000008152509250925050915091565b60006040518060400160405280601081526020016f15d85a5d08199bdc881d1a5b595bdd5d60821b8152509250925050915091565b600081815260208190526040902060028101546110dd5760405162461bcd60e51b815260206004820152601260248201527115185cdac8191bd95cdb89dd08195e1a5cdd60721b6044820152606401610791565b60018101546001600160a01b0316156111285760405162461bcd60e51b815260206004820152600d60248201526c20b63932b0b23c903a30b5b2b760991b6044820152606401610791565b600481015460ff161561116c5760405162461bcd60e51b815260206004820152600c60248201526b416c726561647920646f6e6560a01b6044820152606401610791565b600481015462010000900460ff16156111975760405162461bcd60e51b81526004016107919061183e565b60078101541561124d576000805b600783015481101561120557336001600160a01b03168360070182815481106111d0576111d06117bf565b6000918252602090912001546001600160a01b0316036111f35760019150611205565b806111fd816117eb565b9150506111a5565b508061124b5760405162461bcd60e51b8152602060048201526015602482015274139bdd08185b88185c1c1c9bdd9959081859d95b9d605a1b6044820152606401610791565b505b600180820180546001600160a01b0319163317905560048201805460ff191690911790554260068201556040517fc1fa7142cfb933d0855114a3bffde296944c30b727f297c14d0db4d553d3a5c790610f109084815260200190565b600081815260208190526040902080546001600160a01b031633146112e05760405162461bcd60e51b815260040161079190611817565b600481015460ff166113245760405162461bcd60e51b815260206004820152600d60248201526c139bdd0818dbdb5c1b195d1959609a1b6044820152606401610791565b6004810154610100900460ff16156113715760405162461bcd60e51b815260206004820152601060248201526f105b1c9958591e481d995c9a599a595960821b6044820152606401610791565b600481015462010000900460ff161561139c5760405162461bcd60e51b81526004016107919061183e565b60048101805462ffff00191662010100179055600181015460028201546040516001600160a01b03909216916108fc82150291906000818181858888f19350505050158015610ed7573d6000803e3d6000fd5b828054828255906000526020600020908101928215611444579160200282015b8281111561144457825182546001600160a01b0319166001600160a01b0390911617825560209092019160019091019061140f565b50611450929150611454565b5090565b5b808211156114505760008155600101611455565b60006020828403121561147b57600080fd5b5035919050565b6000815180845260005b818110156114a85760208185018101518683018201520161148c565b506000602082860101526020601f19601f83011685010191505092915050565b600081518084526020808501945080840160005b838110156115015781516001600160a01b0316875295820195908201906001016114dc565b509495945050505050565b602081526115266020820183516001600160a01b03169052565b6000602083015161154260408401826001600160a01b03169052565b50604083015160608301526060830151610140806080850152611569610160850183611482565b9150608085015161157e60a086018215159052565b5060a085015180151560c08601525060c085015180151560e08601525060e08501516101008581019190915285015161012080860191909152850151848303601f1901828601526115cf83826114c8565b9695505050505050565b80356001600160a01b03811681146115f057600080fd5b919050565b6000806040838503121561160857600080fd5b82359150611618602084016115d9565b90509250929050565b821515815260406020820152600061163c6040830184611482565b949350505050565b60208152600061165760208301846114c8565b9392505050565b6001600160a01b038a811682528916602082015260408101889052610120606082018190526000906116928382018a611482565b9715156080840152505093151560a085015291151560c084015260e083015261010090910152949350505050565b600080600080604085870312156116d657600080fd5b843567ffffffffffffffff808211156116ee57600080fd5b818701915087601f83011261170257600080fd5b81358181111561171157600080fd5b88602082850101111561172357600080fd5b60209283019650945090860135908082111561173e57600080fd5b818701915087601f83011261175257600080fd5b81358181111561176157600080fd5b8860208260051b850101111561177657600080fd5b95989497505060200194505050565b600181811c9082168061179957607f821691505b6020821081036117b957634e487b7160e01b600052602260045260246000fd5b50919050565b634e487b7160e01b600052603260045260246000fd5b634e487b7160e01b600052601160045260246000fd5b6000600182016117fd576117fd6117d5565b5060010190565b80820180821115610568576105686117d5565b6020808252600d908201526c4e6f7420796f7572207461736b60981b604082015260600190565b6020808252600c908201526b105b1c9958591e481c185a5960a21b604082015260600190565b8381528260208201526060604082015260006118836060830184611482565b95945050505050565b634e487b7160e01b600052604160045260246000fd5b601f8211156118ec57600081815260208120601f850160051c810160208610156118c95750805b601f850160051c820191505b818110156118e8578281556001016118d5565b5050505b505050565b815167ffffffffffffffff81111561190b5761190b61188c565b61191f816119198454611785565b846118a2565b602080601f831160018114611954576000841561193c5750858301515b600019600386901b1c1916600185901b1785556118e8565b600085815260208120601f198616915b8281101561198357888601518255948401946001909101908401611964565b50858210156119a15787850151600019600388901b60f8161c191681555b5050505050600190811b01905550565b86815260006020608081840152866080840152868860a0850137600060a0888501810182905260408501889052601f19601f8a011685018581038201606087015290810186905286919060c0015b86821015611a2d576001600160a01b03611a18846115d9565b168152918301916001919091019083016119ff565b9b9a505050505050505050505056fe4167656e74206465736572766573207061796d656e74202d2063616e6e6f742063616e63656ca2646970667358221220a3379c6754955e4919c1cdcf3b44e2ce6616b97fac2279e3d8315bf16ee723c464736f6c63430008130033",
  "linkReferences": {},
  "deployedLinkReferences": {}
}